:020000040800F2
:1000000000002F208DBB010841F8000843F80008CC
:1000100045F8000847F8000849F80008DDBB01086A
:10002000000000000000000000000000317E010818
:100030004BF8000800000000C17D0108D9990108B3
:10004000DDBB0108DDBB0108DDBB0108DDBB01082C
:10005000DDBB0108DDBB0108DDBB0108DDBB01081C
:10006000DDBB0108DDBB0108DDBB0108DDBB01080C
:10007000DDBB0108DDBB0108DDBB0108DDBB0108FC
:10008000DDBB0108DDBB0108DDBB01084DF8000840
:10009000DDBB0108DDBB0108DDBB0108DDBB0108DC
:1000A000DDBB0108DDBB0108DDBB0108DDBB0108CC
:1000B000DDBB010855F8000861F80008DDBB010848
:1000C000DDBB0108DDBB0108DDBB0108DDBB0108AC
:1000D000DDBB0108DDBB0108DDBB0108DDBB01089C
:1000E000DDBB0108DDBB0108DDBB0108DDBB01088C
:1000F000DDBB0108DDBB0108DDBB0108DDBB01087C
:10010000DDBB01086DF80008DDBB0108DDBB01089F
:10011000DDBB0108DDBB0108DDBB0108DDBB01085B
:10012000DDBB0108DDBB0108DDBB0108DDBB01084B
:10013000DDBB0108DDBB0108DDBB0108DDBB01083B
:10014000DDBB0108DDBB0108DDBB0108DDBB01082B
:10015000DDBB0108DDBB0108DDBB0108DDBB01081B
:10016000DDBB0108DDBB0108DDBB0108DDBB01080B
:10017000DDBB0108DDBB0108DDBB0108DDBB0108FB
:10018000DDBB0108DDBB0108DDBB0108DDBB0108EB
:10019000DDBB0108DDBB0108DDBB0108DDBB0108DB
:1001A000DDBB0108DDBB0108DDBB0108DDBB0108CB
:1001B000DDBB0108DDBB0108DDBB0108DDBB0108BB
:1001C000DDBB0108DDBB0108DDBB0108DDBB0108AB
:1001D000DDBB0108DDBB0108DDBB0108DDBB01089B
:1001E000DDBB0108DDBB0108DDBB0108DDBB01088B
:1001F000DDBB0108DDBB0108DDBB0108DDBB01087B
:10020000DDBB0108DDBB0108DDBB0108DDBB01086A
:10021000DDBB0108DDBB010879F80008DDBB010882
:10022000DDBB0108DDBB0108DDBB0108DDBB01084A
:10023000DDBB0108DDBB0108DDBB0108DDBB01083A
:10024000DDBB0108DDBB0108DDBB0108DDBB01082A
:1002500085F8000891F80008DDBB01089DF800084A
:10026000A9F80008DDBB0108DDBB0108DDBB010802
:04027000ADF80008DD
:1002800010B5054C237833B9044B13B1044800E092
:1002900000BF0123237010BD40DB052000000000DB
:1002A0007C16050808B5034B1BB10349034800E061
:1002B00000BF08BD0000000044DB05207C160508D7
:1002C000034613F8012B002AFBD1181A0138704796
:1002D00081F0004102E000BF83F0004330B54FEAF7
:1002E00041044FEA430594EA050F08BF90EA020F64
:1002F0001FBF54EA000C55EA020C7FEA645C7FEAF7
:10030000655C00F0E2804FEA5454D4EB5555B8BF19
:100310006D420CDD2C4480EA020281EA030382EA8A
:10032000000083EA010180EA020281EA0303362D1C
:1003300088BF30BD11F0004F4FEA01314FF4801CEF
:100340004CEA113102D0404261EB410113F0004F01
:100350004FEA03334CEA133302D0524263EB4303B8
:1003600094EA050F00F0A780A4F10104D5F1200E56
:100370000DDB02FA0EFC22FA05F2801841F10001B1
:1003800003FA0EF2801843FA05F359410EE0A5F185
:1003900020050EF1200E012A03FA0EFC28BF4CF0B6
:1003A000020C43FA05F3C01851EBE37101F000456C
:1003B00007D54FF0000EDCF1000C7EEB00006EEB79
:1003C0000101B1F5801F1BD3B1F5001F0CD3490803
:1003D0005FEA30004FEA3C0C04F101044FEA44525A
:1003E00012F5800F80F09A80BCF1004F08BF5FEAE1
:1003F000500C50F1000041EB045141EA050130BDC1
:100400005FEA4C0C404141EB010111F4801FA4F163
:100410000104E9D191F0000F04BF01460020B1FAB8
:1004200081F308BF2033A3F10B03B3F120020CDAF0
:100430000C3208DD02F1140CC2F10C0201FA0CF0CE
:1004400021FA02F10CE002F11402D8BFC2F1200C33
:1004500001FA02F120FA0CFCDCBF41EA0C019040E9
:10046000E41AA2BF01EB0451294330BD6FEA040432
:100470001F3C1CDA0C340EDC04F11404C4F120021D
:1004800020FA04F001FA02F340EA030021FA04F32F
:1004900045EA030130BDC4F10C04C4F1200220FA86
:1004A00002F001FA04F340EA0300294630BD21FAC4
:1004B00004F0294630BD94F0000F83F4801306BF8A
:1004C00081F480110134013D4EE77FEA645C18BF7E
:1004D0007FEA655C29D094EA050F08BF90EA020F15
:1004E00005D054EA000C04BF1946104630BD91EA0D
:1004F000030F1EBF0021002030BD5FEA545C05D110
:100500004000494128BF41F0004130BD14F580044E
:100510003CBF01F5801130BD01F0004545F0FE41C2
:1005200041F470014FF0000030BD7FEA645C1ABFF7
:10053000194610467FEA655C1CBF0B46024650EA2E
:10054000013406BF52EA033591EA030F41F400215A
:1005500030BD00BF90F0000F04BF0021704730B5E0
:100560004FF4806404F132044FF000054FF00001B5
:1005700050E700BF90F0000F04BF0021704730B576
:100580004FF4806404F1320410F0004548BF40424B
:100590004FF000013EE700BF42004FEAE2014FEAA0
:1005A00031014FEA02701FBF12F07F4393F07F4F7B
:1005B00081F06051704732F07F4208BF704793F07E
:1005C0007F4F04BF41F40021704730B54FF4607491
:1005D00001F0004521F000411CE700BF50EA010294
:1005E00008BF704730B54FF000050AE050EA01023D
:1005F00008BF704730B511F0004502D5404261EBAD
:1006000041014FF4806404F132045FEA915C3FF4ED
:10061000D8AE4FF003025FEADC0C18BF03325FEA8A
:10062000DC0C18BF033202EBDC02C2F1200300FA3B
:1006300003FC20FA02F001FA03FE40EA0E0021FA60
:1006400002F11444BDE600BF70B54FF0FF0C4CF44E
:10065000E06C1CEA11541DBF1CEA135594EA0C0F00
:1006600095EA0C0F00F0DEF82C4481EA030621EA3B
:100670004C5123EA4C5350EA013518BF52EA033576
:1006800041F4801143F4801338D0A0FB02CE4FF028
:100690000005E1FB02E506F00042E0FB03E54FF058
:1006A0000006E1FB03569CF0000F18BF4EF0010E50
:1006B000A4F1FF04B6F5007F64F5407404D25FEA4C
:1006C0004E0E6D4146EB060642EAC62141EA5551FF
:1006D0004FEAC52040EA5E504FEACE2EB4F1FD0C41
:1006E00088BFBCF5E06F1ED8BEF1004F08BF5FEABF
:1006F000500E50F1000041EB045170BD06F0004671
:1007000046EA010140EA020081EA0301B4EB5C041D
:10071000C2BFD4EB0C0541EA045170BD41F4801115
:100720004FF0000E013C00F3AB8014F1360FDEBF3A
:10073000002001F0004170BDC4F10004203C35DA16
:100740000C341BDC04F11404C4F1200500FA05F399
:1007500020FA04F001FA05F240EA020001F000423A
:1007600021F0004110EBD37021FA04F642EB0601B0
:100770005EEA430E08BF20EAD37070BDC4F10C04DA
:10078000C4F1200500FA04F320FA05F001FA04F29E
:1007900040EA020001F0004110EBD37041F100018A
:1007A0005EEA430E08BF20EAD37070BDC4F1200595
:1007B00000FA05F24EEA020E20FA04F301FA05F2FD
:1007C00043EA020321FA04F001F0004121FA04F2A5
:1007D00020EA020000EBD3705EEA430E08BF20EA75
:1007E000D37070BD94F0000F0FD101F000464000AF
:1007F00041EB010111F4801F08BF013CF7D041EA31
:10080000060195F0000F18BF704703F00046520034
:1008100043EB030313F4801F08BF013DF7D043EA05
:100820000603704794EA0C0F0CEA135518BF95EABB
:100830000C0F0CD050EA410618BF52EA4306D1D142
:1008400081EA030101F000414FF0000070BD50EA61
:10085000410606BF1046194652EA430619D094EAEB
:100860000C0F02D150EA013613D195EA0C0F05D1D5
:1008700052EA03361CBF104619460AD181EA030129
:1008800001F0004141F0FE4141F470014FF00000E1
:1008900070BD41F0FE4141F4780170BD70B54FF07C
:1008A000FF0C4CF4E06C1CEA11541DBF1CEA1355FC
:1008B00094EA0C0F95EA0C0F00F0A7F8A4EB0504DE
:1008C00081EA030E52EA03354FEA013100F08880D5
:1008D0004FEA03334FF0805545EA131343EA12639E
:1008E0004FEA022245EA111545EA10654FEA002653
:1008F0000EF000419D4208BF964244F1FD0404F50C
:10090000407402D25B084FEA3202B61A65EB030567
:100910005B084FEA32024FF480104FF4002CB6EB24
:10092000020E75EB030E22BFB61A754640EA0C00A4
:100930005B084FEA3202B6EB020E75EB030E22BFE4
:10094000B61A754640EA5C005B084FEA3202B6EB25
:10095000020E75EB030E22BFB61A754640EA9C00E4
:100960005B084FEA3202B6EB020E75EB030E22BFB4
:10097000B61A754640EADC0055EA060E18D04FEA72
:10098000051545EA16754FEA06164FEAC30343EA12
:1009900052734FEAC2025FEA1C1CC0D111F4801FDF
:1009A0000BD141EA00014FF000004FF0004CB6E7D8
:1009B00011F4801F04BF01430020B4F1FD0C88BF77
:1009C000BCF5E06F3FF6AFAEB5EB030C04BFB6EB82
:1009D000020C5FEA500C50F1000041EB045170BD75
:1009E0000EF0004E4EEA113114EB5C04C2BFD4EBA2
:1009F0000C0541EA045170BD41F480114FF0000E26
:100A0000013C90E645EA060E8DE60CEA135594EAA1
:100A10000C0F08BF95EA0C0F3FF43BAF94EA0C0FA4
:100A20000AD150EA01347FF434AF95EA0C0F7FF419
:100A300025AF104619462CE795EA0C0F06D152EA6D
:100A400003353FF4FDAE1046194622E750EA410651
:100A500018BF52EA43067FF4C5AE50EA41047FF462
:100A60000DAF52EA43057FF4EBAE12E74FF0FF3CC7
:100A700006E000BF4FF0010C02E000BF4FF0010C98
:100A80004DF804CD4FEA410C7FEA6C5C4FEA430C11
:100A900018BF7FEA6C5C1BD001B050EA410C0CBF60
:100AA00052EA430C91EA030F02BF90EA020F0020C2
:100AB000704710F1000F91EA030F58BF994208BF29
:100AC00090422CBFD8176FEAE37040F001007047E6
:100AD0004FEA410C7FEA6C5C02D150EA013C07D13D
:100AE0004FEA430C7FEA6C5CD6D152EA033CD3D088
:100AF0005DF8040B704700BF8446104662468C4682
:100B00001946634600E000BF01B5FFF7B7FF0028B4
:100B100048BF10F1000F01BD4DF808EDFFF7F4FFDD
:100B20000CBF012000205DF808FB00BF4DF808ED68
:100B3000FFF7EAFF34BF012000205DF808FB00BF8B
:100B40004DF808EDFFF7E0FF94BF012000205DF8AD
:100B500008FB00BF4DF808EDFFF7CEFF94BF012062
:100B600000205DF808FB00BF4DF808EDFFF7C4FF5B
:100B700034BF012000205DF808FB00BF4FEA4102AE
:100B800012F5001215D211D56FF47873B3EB6252DF
:100B900012D94FEAC12343F0004343EA505311F006
:100BA000004F23FA02F018BF404270474FF0000098
:100BB000704750EA013005D111F0004008BF6FF0D6
:100BC000004070474FF00000704700BF4FEA4102FD
:100BD000B2F1E04324BFB3F5001CDCF1FE5C0DD99B
:100BE00001F0004C4FEAC0024CEA5070B2F1004FE5
:100BF00040EB830008BF20F00100704711F0804FE8
:100C000021D113F13872BCBF01F00040704741F4AC
:100C100080114FEA5252C2F11802C2F1200C10FAB0
:100C20000CF320FA02F018BF40F001004FEAC12394
:100C30004FEAD32303FA0CFC40EA0C0023FA02F338
:100C40004FEA4303CCE77FEA625307D150EA01330E
:100C50001EBF4FF0FE4040F44000704701F00040DE
:100C600040F0FE4040F40000704700BF80F00040BC
:100C700002E000BF81F0004142001FBF5FEA410374
:100C800092EA030F7FEA226C7FEA236C6AD04FEA74
:100C90001262D2EB1363C1BFD218414048404140B9
:100CA000B8BF5B42192B88BF704710F0004F40F46B
:100CB000000020F07F4018BF404211F0004F41F487
:100CC000000121F07F4118BF494292EA030F3FD053
:100CD000A2F1010241FA03FC10EB0C00C3F1200366
:100CE00001FA03F100F0004302D5494260EB4000F5
:100CF000B0F5000F13D3B0F1807F06D340084FEA60
:100D0000310102F10102FE2A51D2B1F1004F40EB54
:100D1000C25008BF20F0010040EA030070474900BC
:100D200040EB000010F4000FA2F10102EDD1B0FA87
:100D300080FCACF1080CB2EB0C0200FA0CF0AABF7C
:100D400000EBC25052421843BCBFD040184370471A
:100D500092F0000F81F4000106BF80F40000013220
:100D6000013BB5E74FEA41037FEA226C18BF7FEAF7
:100D7000236C21D092EA030F04D092F0000F08BF39
:100D80000846704790EA010F1CBF0020704712F020
:100D90007F4F04D1400028BF40F00040704712F15F
:100DA00000723CBF00F50000704700F0004343F0C4
:100DB000FE4040F4000070477FEA226216BF0846FA
:100DC0007FEA23630146420206BF5FEA412390EABD
:100DD000010F40F4800070474FF0000304E000BFB3
:100DE00010F0004348BF40425FEA000C08BF704764
:100DF00043F0964301464FF000001CE050EA010228
:100E000008BF70474FF000030AE000BF50EA01023C
:100E100008BF704711F0004302D5404261EB410129
:100E20005FEA010C02BF84460146002043F0B6434E
:100E300008BFA3F18053A3F50003BCFA8CF2083A73
:100E4000A3EBC25310DB01FA02FC634400FA02FC7C
:100E5000C2F12002BCF1004F20FA02F243EB020083
:100E600008BF20F00100704702F1200201FA02FCE5
:100E7000C2F1200250EA4C0021FA02F243EB0200D8
:100E800008BF20EADC70704781807047C1807047DE
:100E900001817047418170477047704770477047C4
:100EA000C38810B4D21A838812B2C91A036809B26F
:100EB0005B6D5DF8044B1847806A70477047B0F867
:100EC00024037047704770470023C0F8383E012361
:100ED00080F8403E7047A0F832137047B0F83203F4
:100EE0007047000010B50446024B036005F016F889
:100EF000204610BD8C18050810B50446FFF7F2FF18
:100F000020464FF451714CF0D1F8204610BD00003E
:100F100010B50446054B036000F52E60FFF7E2FFB5
:100F2000204606F021FA204610BD00BF7C190508B6
:100F300010B50446FFF7ECFF204640F644614CF044
:100F4000B5F8204610BD10B503680446D3F8D0307C
:100F5000984740B194F825302BB123682046BDE86E
:100F600010405B69184710BD10B5044606F04EF8F6
:100F7000114B04F52E60236004F0E6FF0C22C4F848
:100F8000242E0F220D4BC4F8282EC4F8E03A1E225E
:100F90000023C4F82C2E84F80F3EC4F8103EC4F889
:100FA000203E84F8343E84F8403E84F8413E84F884
:100FB000423E204610BD00BF7C1905088C1805086C
:100FC00070B590F82F330446002B53D0B0F830039F
:100FD000B4F83233013080B29842A4F8300349D3D8
:100FE000B4F83653B4F83823C01A521BD4F83C6313
:100FF000B4F8343312B2002180B2B0470544204621
:1010000004F096FFADB22EB2B04208D0EDB24EBBA6
:101010002046FFF798FF2946204604F080FFB4F8E9
:101020003233B4F83413B4F830230B449A4221D34A
:10103000002384F82F33A4F8343323F0A9FA21468F
:10104000043023F0F2FAD4F8400398B10368DB6867
:10105000984778B1D4F840032146BDE87040036852
:101060009B6818472046294604F059FF2046FFF7A1
:101070006AFFD4E770BD08B5FFF7A2FF08BD000006
:1010800070B50546002606F086F9F02205F52E64B7
:1010900011462046C5F8E46A1AF0CEFD1B4B2046E7
:1010A000C5F8E83A0622DB2359211AF0E2FD204672
:1010B000D72325224C211AF0D0FDD7232522204604
:1010C0003F211AF0BEFD204601211AF089FE20467C
:1010D00001211AF06BFE95F82C3E95F8282E95F814
:1010E000241E20461AF0D1FD094A20460A211AF092
:1010F00032FE3146204604F012FF224605F50F71FC
:10110000281DBDE870401BF05EB900BFE001E001A2
:10111000B969020870B52DED028BD0F8303E044657
:101120003B2B40F3B680D0F82C3E01333B2BC0F86C
:101130002C3E0CDD0023D0F8281ED0F8242E0131DF
:101140003B29C0F82C3E00F39B80C0F8281E94F881
:101150002C3E94F8282E94F8241E04F52E601BF0E3
:101160007DF8D4F82C3ED4F8282ED4F8241E04F5AB
:101170000F7001F0B9FF002394F8405EC4F8303ED0
:10118000002D00F08880D4F8383EDFED6A1A07EEB3
:10119000903A9FED691ADFED690AB8EEE70A05F0AB
:1011A0008DFDB0EE408A04F1C405284624F0D8FA3B
:1011B000B0EE480A28461FF048F9D4F8383E01330B
:1011C000322BC4F8383E2EDD0025012684F8E95084
:1011D00084F8BD6004F1980024F0C2FA94F80F3E40
:1011E00084F8405EC4F8385E84F8416E04F52E65DC
:1011F0002BB923F0CDF92946043023F0BFFA0023A0
:101200002846A4F8103E04F093FEFF23A4F8183EED
:101210001E23A4F8143E4A4BA4F8160EC4F81C3E34
:10122000012384F80F3E94F8423E002B7ED0D4F880
:101230003C3EDFED401A07EE903AB7EE001ADFEDC4
:10124000410AB8EEE70A05F039FDB0EE408A04F530
:10125000C075284624F084FAB0EE480A28461FF0EC
:10126000F4F8D4F83C3E0133192BC4F83C3E49D184
:10127000BDEC028B04F50F70BDE8704001F070BF4B
:101280000132172AC0F8283ED8BF1346C0F8243EC2
:101290005DE7013370E794F8413E002BC3D0D4F8EA
:1012A000383E9FED298A07EE903ADFED221AB0EE24
:1012B000481ADFED240AB8EEE70A05F0FFFCF0EE6D
:1012C000408A04F52E66304604F048FE38EE880A5F
:1012D000304604F04DFED4F8383E0133232BC4F8D9
:1012E000383E07D10123C4F83C5E84F8423E84F8BE
:1012F000A53198E7322BC2BF012384F8415E84F800
:10130000343E90E7322B11DDBDEC028B002384F8D4
:10131000423EC4F83C3E84F8A531012304F5AA708E
:1013200084F87931BDE8704024F01ABABDEC028B24
:1013300070BD00BF00004842CDCC4CBE9A99993F89
:10134000B76B020800000000DB0FC93F704704388C
:101350007047704710B5044610214BF0A7FE204699
:1013600010BDA0F10400F5E7002210B58260044A28
:10137000C16002F1080420320460426010BD00BF69
:10138000B019050800220260704770477047704727
:1013900010B50446024B036006F07CF8204610BDF1
:1013A000E019050810B50446FFF7F2FF204640F2A9
:1013B000B4414BF07BFE204610BD0268B0EE401AEF
:1013C000D26FD0ED0E0A90ED0D0A104713B590F8CC
:1013D0002830044643B1014668461FF03AF82368B6
:1013E00069461B692046984702B010BD10B50446F7
:1013F00006F054F90E4B04F2A4422360002384F853
:10140000903484F89134C4F89434C4F89834C4F80F
:101410009C34C4F8A0340023136004F59562136073
:1014200004F2AC42136004F596621360204610BDCE
:10143000E0190508C0EE211AF7EE007A9FED086A60
:1014400071EEE71A9FED077A61EEA16AA1EE867A46
:10145000E6EE877AE7EE810AB0EE600A704700BFD9
:10146000B0E62C4060CDD93F08B506F014F8012253
:10147000024B1B6883F86C2008BD00BF1C8C072042
:10148000F8B52DED048B90F891340446002B4CD028
:1014900090F89034052B48D8DFE813F006004A0096
:1014A000660094004301F601D0F89434B7EE000AC8
:1014B00007EE903AD0F89834F8EEE76A07EE903AE3
:1014C000B8EEE77AC6EE877A77EEC07A27EEA77A8B
:1014D0000125A7EE870ADFEDE67A00F1C40680F861
:1014E000E95030EE270A30461EF0AFFF3046FFF7D6
:1014F0006DFFD4F89434D4F898242B449342C4F864
:10150000943412DD002704F1980084F8BD5024F0D3
:1015100027F984F8E970304624F022F93223C4F820
:101520009474C4F8983484F89054BDEC048BF8BDDE
:10153000D0F89434D0F8982401339342C0F894340E
:10154000F3DD012500F2544080F8255024F008F91D
:101550000023C4F894343223C4F89834022384F866
:10156000295384F89034E0E7D0F89834B7EE001AA5
:1015700007EE903AD0F89434F8EEE71A07EE903A76
:10158000DFEDBB0AB8EEE70AFFF754FF00F541753F
:1015900028461EF05AFF2846FFF718FFD4F8943467
:1015A000D4F8982401339342C4F89434BDDD012368
:1015B00084F899320023C4F89434A023C4F89834F2
:1015C0000323CEE70222D0F89834B7EE008A93FBCB
:1015D000F2F3D0F89424DFEDA68A9A422DDDD0F8FC
:1015E0009C34B0EE489A07EE903AD0F8A034F8EE6A
:1015F000E76A07EE903AB8EEE77AC6EE877A77EEBA
:10160000C87A27EEA77AB0EE680AA7EE879ADFEDD0
:10161000997A00F5F275A9EE270A2846FFF7CDFE64
:1016200039EE280A28461EF010FF2846FFF7CEFEA6
:10163000D4F89C340133C4F89C34D4F89434B0EE1C
:10164000680A07EE903AD4F89834F8EEE76A07EEA5
:10165000903AB8EEE77AC6EE877A77EEC87A27EE48
:10166000A77AA7EE878ADFED847A38EE289A04F508
:101670001D75A8EE270A2846FFF79FFEB0EE490A1F
:1016800028461EF0E2FE04F5AA762846FFF79EFEE5
:10169000B0EE490A30461EF0D8FE3046FFF796FEFF
:1016A0000222D4F89814D4F8943491FBF2F2013366
:1016B0009342C4F8943408D1012284F8092200220C
:1016C000C4F8A034C4F89C242FE78B427FF72DAFD9
:1016D000D4F8B02204F2A4431A60684A04F2AC437E
:1016E0001A600123002584F8913004F16C0024F085
:1016F00037F8304684F8795124F032F804F2544037
:1017000084F8795424F02CF884F8BD5004F1980042
:1017100024F026F87823C4F89454C4F898340423A9
:101720001FE70822D0F89834B7EE008A93FBF2F353
:10173000D0F894249A422CDDD0F89C3400F59662BF
:1017400007EE903AD0F8A034F8EEE76A07EE903A48
:10175000B8EEE77AC6EE877A77EEC87AF0EE486A96
:1017600027EEA77A00F59563E7EE876A93ED000A06
:1017700092ED007A00F5F275A7EE260A2846FFF7EB
:101780001CFE2846FFF722FED4F89C340133C4F82F
:101790009C34D4F8943404F2AC4607EE903AD4F872
:1017A0009834F8EEE76A07EE903AB8EEE77AC6EEBC
:1017B000877A77EEC87A27EEA77A04F2A447A7EED5
:1017C000878A97ED000AD6ED007A04F51D75A7EE1D
:1017D000880A2846FFF7F1FD2846FFF7F7FD0823A2
:1017E000D4F89814D4F8942491FBF3F301329A427C
:1017F000C4F8942412D1D4F8200204F5956318603B
:101800001F4804F5966318600023C4F89C34042331
:1018100091FBF3F303EB4303C4F8A0348A427FF750
:1018200084AE0125D4F8B03204F5AA703B60154BA4
:10183000336084F8795123F093FF84F8795404F2EB
:10184000544023F08DFF84F8BD50002504F198002A
:1018500023F086FF84F8915004F16C0023F080FFA0
:101860003C23C4F89454C4F89834052379E600BFA7
:10187000000000008716C93FF90F49C0F90F494021
:101880008716C9BF6C09C93F0422D0F89834B7EE57
:10189000008A93FBF2F3D0F894249A4231DDD0F819
:1018A0009C34F0EE488A07EE903AD0F8A034F8EE77
:1018B000E76A07EE903AB8EEE77AC6EE877A77EEF7
:1018C000C87A27EEA77A00F5956300F59662E7EEF1
:1018D000878A93ED000AD2ED007A00F5F275A8EE42
:1018E000A70A2846FFF769FD38EE680A28461EF069
:1018F000ACFD2846FFF76AFDD4F89C340133C4F8E8
:101900009C34D4F8943404F2AC4207EE903AD4F804
:101910009834F8EEE76A07EE903AB8EEE77AC6EE4A
:10192000877A77EEC87AF0EE486A27EEA77AE7EE74
:10193000876A04F2A44392ED007A93ED000A38EE30
:10194000668A04F51D75A6EE870A2846FFF735FD61
:10195000B0EE480A28461EF078FD284604F5AA7520
:10196000FFF734FDB0EE480A28461EF06EFD28460B
:10197000FFF72CFD0422D4F89814D4F8943491FB8A
:10198000F2F201339342C4F894340FD1D4F8200218
:1019900004F5956210600E4804F59662106000220E
:1019A000C4F89C2403EB4302C4F8A0248B427FF7C5
:1019B000BCAD0023284684F8913484F8793123F0B3
:1019C000CFFEBDEC048B2046BDE8F84005F032BEEA
:1019D000F90F493F2DE9F04704462DED028B002514
:1019E0009FED2B8A012600F5AA7AB0EE480A80F80E
:1019F000795480F8915080F8E95080F8BD5080F813
:101A0000D56380F8D85380F8796104F54179504660
:101A10001EF01BFD04F51D78B0EE480A48461EF086
:101A200014FD04F5F277B0EE480A40461EF00DFDB5
:101A3000B0EE480A38461EF008FD04F16C0023F0B1
:101A40008FFE04F1C40023F08BFE04F1980023F014
:101A500087FE04F2544023F083FE04F56C7023F0FB
:101A60007FFE504623F07CFE484623F079FE404638
:101A700023F076FE384623F073FEBDEC028B4B2339
:101A800084F89164C4F89454C4F89834BDE8F0879D
:101A900000000000704704387047704710B50446D6
:101AA00010214BF003FB204610BDA0F10400F5E728
:101AB000002210B58260044AC16002F1080420329D
:101AC0000460426010BD00BF181A050870477047D7
:101AD000704745F2A8530022C25045F6B0130122C8
:101AE000C2547047012345F2A852835045F6B01204
:101AF0008354704770B504460B4B00F59C66036039
:101B000000F5655320339E4208D0A3F1700553F8C9
:101B1000703C28461B6898472B46F4E7204606F0A1
:101B200027F9204670BD00BF501A050810B50446BD
:101B3000FFF7E0FF204645F6B4114BF0B7FA204618
:101B400010BD0268B0EE401AD26ED0ED0E0A90EDD4
:101B50000D0A1047D0ED007AF4EEC07AF1EE10FADB
:101B600002DD80ED000A7047F4EEE07AF1EE10FA43
:101B700048BFC0ED000A7047DFED077A37EEC00AB4
:101B8000DFED067A80EE277AF2EE047AB3EE010AF0
:101B9000A7EE270A704700BFDB0FC93FDB0F4940A4
:101BA000F3EE017AB2EE047A30EE670AC0EE077AFD
:101BB0009FED077A67EE877AFCEEE77A41F26A5288
:101BC00017EE903A52FA83F300EB830040687047B7
:101BD00000007F4337B500F5AB4393ED070A00F5EE
:101BE000AB4393ED087ADFED177AB4EEE77AF1EEC6
:101BF00010FA04464FF000024FF0010315DD00F526
:101C0000AA7580F8793180F809222846FFF799FFF4
:101C100094F87C313BB1294668461EF01AFC6946AF
:101C2000284623F0EFFD03B030BD00F5F27580F8D3
:101C3000093280F879212846FFF783FF94F80C32A7
:101C4000E8E700BF3333733F0378D0ED027A9FEDAE
:101C50001B7A43B377EE877AB7EE007AF4EEC77A51
:101C6000F1EE10FA58BFF0EE477AC0ED027AD0EDEF
:101C7000027A90ED037A27EE800ADFED116A20EEFA
:101C8000070A90ED017AA0EE267AF0EEE77A80ED71
:101C9000017A9FED0C7AF4EEC77AF1EE10FACCBF20
:101CA00001200020704777EEC77AF5EEC07AF1EE9A
:101CB00010FAD8BFDFED047AD7E700BFA69B443BFC
:101CC000CDCCCC3D6F12833A0000000090ED017A3C
:101CD000D0ED007A77EEC77A037BC0ED027A6BB164
:101CE000F5EEC07ADFED0B6AF1EE10FA9FED0A6AAD
:101CF00076FE866AA6EE807A80ED017AF0EEE77ACB
:101D00009FED067AF4EEC77AF1EE10FACCBF01200F
:101D1000002070470AD7A33B0AD7A3BB0AD7A33C2E
:101D200070B545F284522DED028B00F5AB43196876
:101D300083588150CB1A07EE903AF8EE675A00F5B7
:101D4000AB420832044682B0B0EE650A1046FFF797
:101D5000BDFF014645F2985021542044FFF774FF1F
:101D600004F5AB4393ED087ADFED3A7AB4EEE77A07
:101D7000F1EE10FA064645F29453CCBF0120002044
:101D8000E05421B945F6B013E35C002B50D045F286
:101D9000A85304F5AB45E3580C35D2ED007A95ED28
:101DA000008A6BB19FED2C7ADFED2C6AB0EE476AAA
:101DB000A8EE267AA7EEA66AB0EE478AF0EE467A3B
:101DC00002AB63ED017A264A052104F2A24026F017
:101DD0004FFD04F57A7023F0C3FCFBFE488AFDEE4C
:101DE000E87A204A17EE903A032104F5936026F032
:101DF00040FB04F5427023F0B3FCF2EE047A38EEB7
:101E0000688A28EE278AFDEEC87A164A17EE903ABD
:101E1000022104F29E4026F02CFB04F5677023F0AB
:101E20009FFC95ED000A2046FFF7BAFEC4F8940027
:101E30001EB945F6B013E35C13B12046FFF7CAFEA6
:101E400045F6B013E25C0AB10022E25402B0BDECE8
:101E5000028B70BD3333733F000000426666E63F7D
:101E6000401A0508451A050810B50446FFF758FF43
:101E700004F5AB4003680133036010BD2DE9F04F5A
:101E80002DED0A8B834600259FED81AADFED81AA07
:101E9000002600F5655A804F83B00AF1200A00F54C
:101EA0009C64544500F0EF80052395FBF3F303EBAE
:101EB00083039D420BF5B343D3ED0B7A7AEE677A39
:101EC00017EE900A0CBF6FF004084FF00008FEF701
:101ED00063FB41EC100B41EC180B4BF099F951EC02
:101EE000100BFEF773FEB0EE480AF0EE680A0BEE38
:101EF000100A4BF02DF951EC100BFEF767FE09EEBE
:101F0000100AB4EEEA9AF1EE10FA40F1B980F0EE60
:101F1000CB7A17EE900AFEF73FFB02460B460020F5
:101F20005E49FEF7D9F9804619EE100A8946FEF798
:101F300033FB02460B4640464946FEF785FBFEF75B
:101F400045FE07EE900A27EEA78A28EE088A4FF092
:101F5000000828EE488AB5EEC09AF7EE009AF1EE36
:101F600010FADFED4B7A39EE297A58BFB0EE678A66
:101F7000F0EE69BAF6EE007AE7EE67BAB2EE0E7AE4
:101F8000DFED477AE8EE077A07EE108ADFED458A43
:101F9000B8EEC77AB0EE68CA77EE877AF0EE68CA14
:101FA000A7EE8BCAE7EE89CADFED3F7A6BEEA77A20
:101FB000FCEEE77ACDED017A23689DF804101B6EE4
:101FC00020469847DFED397AF4EEE7BAF0EE6C7A06
:101FD000FEEEED7AF1EE10FA17EE902AF0EE4C7A62
:101FE000CCBF01230023FEEEED7A84F8253017EEF6
:101FF000901A20461CF016FFDFED2D7AB0EE687ABD
:10200000E9EE278AABEE277AF0EE687AFEEEED7AFB
:1020100017EE902AF0EE477AFEEEED7A204617EEA4
:10202000901A1CF00AFFF0EEC87A17EE900AFEF73D
:10203000B3FA32463B46FEF707FBFEF7C7FD07EE55
:10204000900AF4EEE97AF1EE10FA77FEA97AB0EE92
:10205000677ABEEEED7A17EE103AE26B934204D047
:1020600084ED0F7A20461CF0E7FD236820465B696B
:102070009847DFED107A01353AEE27AA703410E761
:102080009FED038A67E703B0BDEC0A8BBDE8F08FD4
:1020900000000000EC5178BF000004400000F03F59
:1020A000000058430000704300007F437B142E3E25
:1020B000000067435077563D70B52DED048BB1F9A4
:1020C00008400546A4F1F0004043B1F9063084B061
:1020D000A3F1F00202FB020247F2E30082427CDD40
:1020E00007EE903A9FED3F9AF8EEE77A77EEC97ADD
:1020F000B1F90A2017EE900A08EE902AB1F90C20E7
:10210000F8EEE88A08EE102AFEF746FA07EE904A43
:10211000F8EEE77A77EEC97ACDE9000117EE900A7A
:10212000FEF73AFA9DED001B41EC100B4BF06AFAFA
:1021300078EEC98A53EC102BB8EEC88A18EE900AD4
:10214000CDE9022338EE498AFEF726FACDE90001EF
:1021500018EE100AFEF720FA9DED001B41EC100B63
:102160004BF050FADDE9022351EC100BFEF7B4F806
:10217000FEF72CFD07EE100A9FED1B0AF0EEC77A62
:10218000F4EEC07AF1EE10FA27DC05F5B344D4ED95
:102190000B7A77EE877A2C34C4ED007ADFED130AE0
:1021A000204605F1C406FFF7D5FC94ED000A304641
:1021B000FFF7C7FC304623F0D3FA94ED000AFFF78F
:1021C000DBFC284605F5AB4383ED020A04B0BDEC09
:1021D000048BBDE87040FFF751BE04B0BDEC048B2A
:1021E00070BD00BF00007043DB0FC93FDB0FC9BFEC
:1021F0002DE9F341044605F0BCFD0021204624F002
:10220000D7FB0122314B02A81B6883F86C203D23C9
:1022100020F8043D27F000F804F5AB42283200F521
:1022200040710378857843F07F4343EA054345785E
:10223000033043EA0523814242F8043FF1D104F51B
:10224000655720374FF4E151384620F0CBFC4FF072
:10225000FF33C4F8D834A4F8DC344FF6FF7304F22B
:10226000CC4884F8DE3404F59C65AF4205F1700675
:1022700025D056F8703C28461B6B0021984756F82D
:10228000703C28465B6B0021984756F8703C284606
:102290009B6B4FF4F071984756F8703C2846DB6B07
:1022A0004FF4F07198472846C5F8288001211CF0AA
:1022B000CFFD2946201D1AF02EF83546D5E72046D9
:1022C000FFF7DCFD02B0BDE8F08100BF1C8C0720E9
:1022D000704704387047704710B5044610214AF023
:1022E000E5FE204610BDA0F10400F5E7002210B580
:1022F0008260044AC16002F1080420320460426036
:1023000010BD00BF881A050890F8252012B1036897
:102310005B6918477047704780F85410704790F811
:102320005400704710B50446024B036006F090FD60
:10233000204610BDB81A050810B50446FFF7F2FF95
:102340002046BC214AF0B2FE204610BD10B504461E
:1023500006F088FD014B2046236010BDB81A050821
:1023600013B590F854304BB100F12C042146684667
:102370001EF06FF86946204623F044FA02B010BD03
:1023800006F067BD2C301EF060B813B502AB23F821
:10239000041D00F12C04194620461EF045F80021CA
:1023A000204623F08BFA02B010BDB0EE401AD0EDFB
:1023B000190A90ED180A2C301DF04EBE07EE901A47
:1023C000B0F90410B8EEE77A07EE901AD0ED036A80
:1023D000F8EEE77AE6EE877AC2ED007AB0F90620E9
:1023E000D0ED046A07EE902AF8EEE77AE7EE267A57
:1023F000C3ED007A009B82681A607047704710B581
:10240000044614214AF052FE204610BDF8B52DEDC9
:10241000068B0B79044643B980F8063880F80838F3
:1024200080F80938BDEC068BF8BD90F80638002B13
:10243000F8D190F80938002B00F097809FED529A60
:102440002546F2EE048A00269FED50AAF0EE499A46
:10245000D5F8783205F51E77D3F89030384698478E
:10246000DFED4A0AB0EEC00A4BF088F9D5F87832B1
:102470003846D3F89030B0EE408A9847DFED430AF3
:10248000B0EEC00A4BF07AF9B4EEC90AF1EE10FAD8
:1024900006DDB4EEC98AF1EE10FAC8BF3AEE488AFA
:1024A000B4EEE88AF1EE10FA48BFC4F8206806F1ED
:1024B000010648BFF0EE488A042E05F19005C7D109
:1024C0009025D4F820386B4303F51E702344D3F8CD
:1024D00078322044D3F890309847DFED2D0A4BF046
:1024E0004DF9DFED2C7A20EE270ABBFE400AF0EE14
:1024F000007AB0EEC00AB4EEE70A0123F1EE10FA5A
:1025000084F8063830FE270A04F5016383ED000ADB
:10251000002304F60C02136004F62402136004F690
:1025200014021360D4F820385D4305F51E7025446D
:10253000D5F878322044D3F890309847DFED130A6D
:10254000B0EEC00A4BF01AF9B4EEE90AF7EE007AE1
:10255000F1EE10FABFEE007A77FE877A67EEA87A7E
:1025600004F61804C4ED007A5CE700F60C0200F5EE
:10257000016392ED007AD3ED007AB4EEE77AF1EEE2
:1025800010FA3FF55BAF4DE7DB0F4940DB0FC94069
:10259000DB0FC93F0000A04208B5054B1B682BB9F3
:1025A000044B054A942105484DF0C4FF008808BD3E
:1025B000AC8C0720601B0508701C05089C1B0508D7
:1025C00070B50446154603681B6B98472368294677
:1025D0002046BDE870405B6B184770B504461E4648
:1025E000BDF91050FFF7ECFF2368314620469A6B87
:1025F0009047236829462046BDE87040DB6B1847AA
:1026000010B504462DED028B84ED020AB0EE408A2F
:102610004AF030FF84ED030AB0EE480A4AF07AFF30
:10262000BDEC028B84ED040A10BD0000F7B5044632
:102630004FF6FF7706F07AFA2F4B04F51E752360EC
:1026400004F59766284601A99035ADF804701DF091
:1026500049FDAE42F6D10C23C4F8B8340F23C4F8B8
:10266000BC341E2300254FF07E56244FC4F8C034DE
:1026700004F2C44002F0CCFFC4F88075C4F884555D
:10268000C4F88855C4F88C65C4F8905504F2945089
:1026900002F0BEFFC4F85076C4F85456C4F8585639
:1026A000C4F85C66C4F8605604F2646002F0B0FFDF
:1026B000C4F82077C4F82457C4F82857C4F82C6706
:1026C000C4F8305704F2347002F0A2FF2046C4F878
:1026D000F077C4F8F457C4F8F857C4F8FC67C4F8A6
:1026E000005884F8065884F8075884F80958C4F844
:1026F000205803B0F0BD00BFE41B0508541B0508BB
:102700002DE9F04F2DED028B9026D0F8205885B0A2
:1027100006FB0503B3F89E3204AF27F8043D0446D8
:102720003846FFF739FF002D05F00105B8BF6D42AF
:1027300005FB06652544B5F89E3280463846ADF85F
:102740000C30FFF729FF254683464FF000094FF074
:10275000390ADFED3D8A9FED3D8AD4F8203809F033
:102760000102002B03F00103B8BF5B42934205F561
:102770001E765ED0BBF13A0F0CD0BBF13C0F22D0DD
:10278000D5F87832B8F13A0F1B6E22D13B22ADF862
:102790000C2020E0B8F13C0F51D1002384F8ED303B
:1027A000012384F8713104F168031846019322F083
:1027B000D7FF019B18461AF029F9D5F87832B4F8FA
:1027C00004281B6EE3E7B8F13A0FE6D0D5F878326B
:1027D0001B6EADF80CA0394630469847D5F87832D4
:1027E000B4F90A109B6B30469847D5F87832B4F9A3
:1027F0000810DB6B30469847D5F878323046DA6FF0
:10280000D3F890300192984709F10109F0EE400A9F
:10281000B0EE681AB0EE480A3046019A9047B9F116
:10282000040F05F1900598D105B0BDEC028BBDE811
:10283000F08FB8F13A0FC9D0B8F13C0FADD1D5F84F
:1028400078321B6EA2E700BFDB0F493F000000009B
:102850002DE9F04F2DED028B9026D0F8205885B051
:1028600006FB0503B3F89E3204AF27F8043D044687
:102870003846FFF791FE002D05F00105B8BF6D4207
:1028800005FB06652544B5F89E3280463846ADF80E
:102890000C30FFF781FE254683464FF000094FF0CC
:1028A0003A0ADFED3D8A9FED3D8AD4F8203809F0E1
:1028B0000102002B03F00103B8BF5B42934205F510
:1028C0001E765ED0BBF1390F0CD0BBF13B0F22D08E
:1028D000D5F87832B8F1390F1B6E22D13C22ADF811
:1028E0000C2020E0B8F13B0F51D1012384F8ED30EA
:1028F000002384F8713104F168031846019322F033
:102900002FFF019B18461AF081F8D5F87832B4F8F9
:1029100004281B6EE3E7B8F1390FE6D0D5F878321A
:102920001B6EADF80CA0394630469847D5F8783282
:10293000B4F90A109B6B30469847D5F87832B4F951
:102940000810DB6B30469847D5F878323046DA6F9E
:10295000D3F890300192984709F10109F0EE400A4E
:10296000B0EE681AB0EE480A3046019A9047B9F1C5
:10297000040F05F1900598D105B0BDEC028BBDE8C0
:10298000F08FB8F1390FC9D0B8F13B0FADD1D5F800
:1029900078321B6EA2E700BFE4CB164000000000B7
:1029A000F8B52DED028B0B7904460E46002B40F056
:1029B0009480012380F80838B1F90630002BCCBF91
:1029C00002230623FFEE008A84F8743294F8093853
:1029D000ABB994F87432072B11D8012202FA03F331
:1029E00013F0630140F0948013F09C0F07D094F82B
:1029F000073823B184F807182046FFF781FE01232A
:102A000084F80638B6F90600FDF7B4FD21F000435E
:102A10001946FEF7DBF89FED4D0A07EE900A94F891
:102A2000083827EE800A04F61C0504F5016737EE26
:102A3000A78A002B77D03379002B74D0D5ED007A9C
:102A400020EE000AA7EEA70A4AF0F8FEFBFE487A3D
:102A500085ED000A97ED007A27EEA70AA7EE070A90
:102A60004AF0ECFE87ED000A002604F60C031E6017
:102A700095ED000A68EE808AC5ED008A9FED348AE4
:102A800094EDAC0AF0EE480A38EE800A4AF076FE81
:102A9000D5ED007A94EDAC7A37EE877AB5EEC07A50
:102AA000F1EE10FA46DD9FED2B7AB4EEC70AF1EE97
:102AB00010FA48DD38EE400A70EE277AC5ED007A4C
:102AC00004F624031E6004F614031E602B6804F64B
:102AD00018042360BDEC028BF8BD90F80838B1F9FA
:102AE00006208BB1002A90F8743204DD022B14BF4B
:102AF0000523032366E7022B14BF0723012384F871
:102B00007432F7EE008A61E7002AF8DD042359E702
:102B100094F80738002B7FF472AF84F8072820461A
:102B2000FFF796FE6BE7FBFE487A85ED000AC7EDDE
:102B3000007A99E79FED087AB4EEC70AF1EE10FA31
:102B400048BF30EE080A77EEC07AB7E7CDCCCC3D6F
:102B5000DB0FC93FDB0F493FDB0F49BF2DE9F04FCA
:102B60002DED048B064683B000F51E7400F59765C5
:102B7000336821465B6E304690349847AC42F7D1BB
:102B800000234FF004084FF0FF399FED549A4FF0A7
:102B9000900A8DF804308DF805308DF806308DF8E8
:102BA00007300DEB080B35460027B0EE498AD5F803
:102BB000783205F51E74D3F8FC3020469847D5F8D6
:102BC00078322046D3F80031F0EE408A9847F4EE90
:102BD000C08AF1EE10FAD5F878322046CCBFD3F88F
:102BE000FC30D3F800319847D5F878322046D3F836
:102BF0000431F0EE408A9847D5F878322046D3F871
:102C00000831F0EE409A9847F4EEC09AF1EE10FACF
:102C1000D5F878322046CCBFD3F80431D3F8083148
:102C20009847F4EEC08AF1EE10FAD5F878323DDD1F
:102C3000D3F8FC3020469847D5F878322046D3F8B0
:102C40000031F0EE408A9847F4EEC08AF1EE10FAB7
:102C5000D5F87832CCBFD3F8FC30D3F80031204619
:102C6000984717F80B303BB9B4EEC80AF1EE10FAEA
:102C7000C4BFB0EE408AB9460137042F05F1900574
:102C800095D10AFB0961336801F51E711B6E304650
:102C90009847012202AB4B44B8F1010803F8042C19
:102CA00081D103B0BDEC048BBDE8F08FD3F80431C3
:102CB00020469847D5F878322046D3F80831F0EE10
:102CC000408A9847F4EEC08AF1EE10FAD5F87832CF
:102CD000CCBFD3F80431D3F80831C0E700401CC69C
:102CE0002DE9F0412DED048B90F8093804460D468E
:102CF0005BBB00F60C0200F5016392ED007AD3EDA8
:102D0000007AB4EEE77AF1EE10FA1EDB0A898B89BD
:102D10009B1A4A89C9881BB2521A12F4004F90F8C4
:102D2000072809D1002B09DA7AB90123204684F853
:102D30000738FFF78DFD08E0002BF5DA2AB10023F4
:102D4000204684F80738FFF7DBFC012384F80938B4
:102D50002A89AB89E9889B1A6A891BB2521A12FB2D
:102D600002F2002B03FB032300EE103AFFEE007A81
:102D7000F7EE008AB8EEC00A77FEA88A9FED1B8A9C
:102D80004AF05CFD254620EE088A04F51077D5F858
:102D9000783205F51E76D3F87C803046D3F88C3037
:102DA0009847D5F878323046D3F89030B0EE409A54
:102DB0009847A8EE880AD5F878323046D3F8943090
:102DC000F0EE409A98479035B0EE401AF0EE690A5E
:102DD000B0EE490A3046C047AF42D8D1BDEC048BB3
:102DE0002046BDE8F041FFF7B9BE00BF0AD7233C3B
:102DF0002DE9F84F2DED048B90F806380446002B92
:102E000000F09A8000F6140300F5016800F618023D
:102E100000F60C07D3ED000AD8ED001A92ED001A67
:102E200097ED000A03F094FF94F87432B0EE408AF4
:102E300004F62406072B35D8DFE813F00800080055
:102E4000C900C900F600F60023012301254604F558
:102E5000107AD5F8783205F51E79D3F87CB048465B
:102E6000D3F88C309847D5F878324846D3F890306C
:102E7000B0EE409A9847D6ED008A78EE688AD5F889
:102E800078324846D3F8943078EE808A9847903567
:102E9000B0EE401AF0EE680AB0EE490A4846D8474C
:102EA0005545D6D186ED008AD7ED007AB7EE007A87
:102EB00077EE877AC7ED007A98ED007AF4EEC77A5C
:102EC000F1EE10FA35DD00252646B2EE048AF6EE64
:102ED000008A9FED829A84F80658D6F8783206F573
:102EE0001E77D3F8903038469847B0EEC00AF0EE1F
:102EF000490A30EE280A4AF041FCB4EEC80AF1EE65
:102F000010FA11D5D6F878323846D3F89030984771
:102F1000B0EEC00AF0EE490A30EE280A4AF02EFC64
:102F2000B0EE408AC4F820580135042D06F1900611
:102F3000D3D12046FFF712FE94F82C38002B42D054
:102F4000D4F82838DFED661A07EE903AB7EE001A8B
:102F5000DFED640AB8EEE70A03F016FF2D23FF2227
:102F60000021B4F82808B0EE408A23F024FE25465C
:102F7000074604F51078D5F8783205F51E76D3F8B3
:102F80009830B0EE480A30469847D5F87832304647
:102F90005B6990359847A845EDD104F12C0084F881
:102FA000547022F0DDFB2046FFF7D8FDD4F8283816
:102FB0000133322BC4F82838C1BF002384F82C38E1
:102FC000012384F82430BDEC048BBDE8F88F25463E
:102FD00004F5107AD5F8783205F51E79D3F87CB06F
:102FE0004846D3F88C309847D5F878324846D3F81D
:102FF0009030B0EE409A9847D6ED008A78EE688A15
:10300000D5F878324846D3F8943078EE808A9847DD
:103010009035B0EE401AF0EE680AB0EE490A484624
:10302000D8475545D6D13DE7254604F5107AD5F861
:10303000783205F51E79D3F87CB04846D3F88C3049
:103040009847D5F878324846D3F89030B0EE409A99
:103050009847D6ED008A78EE688AD5F878324846E7
:10306000D3F8943078EE808A98479035B0EE401AC5
:10307000F0EE680AB0EE490A4846D8475545D6D121
:1030800010E7254604F5107AD5F8783205F51E7953
:10309000D3F87CB04846D3F88C309847D5F87832CE
:1030A0004846D3F89030B0EE409A9847D6ED008A63
:1030B00078EE688AD5F878324846D3F8943078EEBE
:1030C000808A98479035B0EE401AF0EE680AB0EE6C
:1030D000490A4846D8475545D6D1E3E6DB0FC940F3
:1030E000000048420000000070B504461D46032160
:1030F000134600F51A70194A25F0BBF92B46174AFA
:10310000032104F1680504F26E2025F0B2F9284687
:1031100022F026FB284619F079FC9023D4F82028C9
:1031200004F29E25534303F51E702344D3F87832EE
:1031300020445B69984704F2DE462846FFF72CFAE4
:10314000B4F80438834205D155F8263CA5F1260091
:103150009B6998479035B542EFD170BDE5210508D0
:1031600010B5044621F014FA2146043021F006FB84
:10317000002301220C49C4F8283804F5016384F8BF
:103180002C281960002304F60C010B6004F62401BE
:103190000B6004F614010B60044904F6180319606F
:1031A00084F8062810BD00BF0000C842E4CB1641D9
:1031B000174B70B50360044621F0EAF9214604304C
:1031C00021F033FAB4F8040825F088FD04F23470D5
:1031D00002F0EBF904F2646002F0E7F904F29450B3
:1031E00002F0E3F904F2C44002F0DFF904F51E76C0
:1031F00004F59765AE4205D055F8903D1B6828460A
:103200009847F7E7204605F00AFC204670BD00BF4E
:10321000E41B050810B50446FFF7CAFF20464FF42B
:10322000036149F043FF204610BD00002DE9F04F37
:103230002DED048B87B0044605F0F2FBC821012276
:103240000846002326F032F9012600254FF0090B2D
:10325000BB4B04F5B0689FEDBB0AA4F80408C4F8A2
:1032600084354046FFF7CCF9B4F9DA0104F2C447DB
:10327000B4F9D621B4F9D831B4F9D4110090384654
:10328000FFF7ABF9D4F8003204F5A679C4F8FC8452
:1032900004F51A7839464846A4F80CB5C4F8183530
:1032A00084F8EA64C4F80055C4F8108519F033F8BE
:1032B000A54B04F5CA679FEDA30A3846C4F85436F7
:1032C000FFF79EF9B4F9260204F2945AB4F92222C7
:1032D000B4F92432B4F9201200905046FFF77DF97A
:1032E0004FF00A03A4F8DC35D4F84C32C4F8CC759E
:1032F00004F26E2751464846C4F8E83584F8BA65AA
:10330000C4F8D055C4F8E07519F005F88F4B04F5F2
:10331000E4699FED8F0A4846C4F82437FFF770F937
:10332000B4F9DA0104F2646AB4F9D621B4F9D831F7
:10333000B4F9D41100905046FFF74FF9D4F8003299
:10334000C4F89C9604F1C80951464846A4F8ACB6A6
:10335000C4F8B83684F88A66C4F8A056C4F8B086B3
:1033600018F0D9FF7B4B04F5FE6B9FED790AC4F88A
:10337000F4375846FFF744F9B4F9260204F2347AD8
:10338000B4F92222B4F92432B4F920120090504644
:10339000FFF723F94FF00A03A4F87C37D4F84C3236
:1033A0004846C4F8883784F85A675146C4F87057BD
:1033B000C4F86CB7C4F8807718F0ADFFD4F8BC340B
:1033C000654A0321404625F054F804F16809D4F811
:1033D000C034614A0321384625F04BF8B4F804188C
:1033E000484619F0C1FA3146484619F019FB4846DB
:1033F00019F00CFB26469FED598A9FED599ADFED97
:10340000598A002206F51E7711463846FFF7D8F88C
:10341000EA074CBF3922B4F80428D6F8783205A957
:103420001B6E3846ADF814209847D6F87832B4F9B8
:103430000A109B6B38469847D6F87832B4F90810D2
:10344000DB6B38469847D6F8783206A8D3F8D030E8
:103450004FF002080393B6F89E32B4F908B020F892
:10346000083D25F0E7FD90FBF8F09BFBF8FBB6F874
:103470009E32B4F90A2000B2ABEB000B05A892FB18
:10348000F8FAADF8143025F009FE90FBF8F000B220
:10349000AAEB000259463846039B9847D6F8783283
:1034A000B0EE480AD3F8983038469847D6F87832C4
:1034B000B0EE490AD3F8C43038469847D6F8783287
:1034C0009FED291AD3F8A430F0EE680A9FED250A83
:1034D00038469847D6F87832F0EE680A9FED210A10
:1034E000D3F8B83038469847D6F8783201215B6E69
:1034F0003846984707EE905AF8EEE70ADFED1B7A58
:10350000D6F878329FED1A1ADB6F60EEA70AB0EE9C
:10351000480A3846984723683A465B6F4946204632
:1035200001359847042D06F190067FF46AAF2046D6
:10353000FFF714FB07B0BDEC048BBDE8F08F00BFB4
:103540003700B100DB0F49BF81006700B000900079
:10355000E4CB16C067004700451A050800000000CC
:1035600000007A440000704300808944DB0FC93FAB
:10357000DB0F493F7047A0F8C0107047B0F8C0009B
:10358000704710B50446082149F090FD204610BD53
:1035900070B50446D0F8A4010D4658B10368DB6845
:1035A000984738B1D4F8A4012946BDE870400368B3
:1035B0009B68184770BD000010B50446024B0360BD
:1035C00005F046FC204610BDB81A050810B50446A3
:1035D000FFF7F2FF2046D02149F068FD204610BDDC
:1035E00070B50446084B00F5D676036000F68C05EE
:1035F000AE4204D0DC3D2846FFF7DEFFF8E7204668
:1036000005F00AF8204670BD601D050810B5044697
:10361000FFF7E6FF204640F6B40149F047FD20469B
:1036200010BD00002DE9F0410446002605F07EF8AB
:10363000134BDFF85080236004F5D67504F68C0731
:103640002846FEF783FEDC3545F8DC8C05F8206C57
:1036500025F81E6C25F81C6C45F8106CBD424FF027
:103660000003EDD184F8A06884F8A13884F8A2386A
:1036700084F8A83884F8A9382046BDE8F08100BF56
:10368000601D0508BC1C050810B5044620F080FF2D
:103690002146043021F072F8012384F8B038002369
:1036A000A4F8B23810BD00009FED2F7AB4EEC70A1F
:1036B000F1EE10FA10B50C462DED028BB0EE408AFB
:1036C0001AD8F3EE0C7A30EE678ADFED287A9FED98
:1036D000280A37EEC88ADFED277AA8EE270A2046A7
:1036E000FEF750FEFF212368D3F88C302046BDEC56
:1036F000028BBDE810401847DFED1F7AB4EEE70AF1
:10370000F1EE10FA0AD830EE478ADFED1C7A9FED11
:103710001C0A37EEC88ADFED1B7ADEE79FED1A7AC6
:10372000B4EEC70AF1EE10FA0AD830EE678ADFED80
:10373000177A9FED170A37EEC88ADFED167ACCE7C5
:1037400008469FED130AFEF71DFEFDEEC87A6FF4E2
:103750009B7317EE901A19446FEA81012368C9B26E
:10376000D3F88C30C2E700BF00009842000040420E
:10377000CDCC4C3F8788883B000042430000EC42A0
:103780009A99193FE927DE3A00809B430000EA42FC
:10379000CDCCCC3E030EE03A2DE9F0412DED068B69
:1037A00090F8AD3205460C46002B00F0A08090F852
:1037B000A838002B40F09B8090F8A938002B40F0EF
:1037C0009680012380F8A1384F4BB6EE007A1B8813
:1037D0004E4E07EE903AB1F90C30F8EE677A08EEEB
:1037E000103AB8EEC88A3388A7EEC78A07EE903A37
:1037F000B1F90A30F8EE677A00EE103AB8EEC00A76
:10380000A7EEC70A20EE000AA8EE080A4AF016F84A
:10381000B4F90A30328888EE000AB3EB520F6ADB43
:1038200049F04EFFB0EE408ADFED399ADFED398A7C
:10383000DFF8F08005F5D67405F68C072046FEF714
:103840008FFDD5ED6A7A94ED340A77EEC87AF0EE02
:10385000690A30EE670A49F091FF84ED340AB0EE50
:10386000409A49F007FEB0EE40AAB0EE490A49F08E
:1038700051FED8ED007AE0EE287A274EBDEEE77AC9
:10388000D6ED007AEAEE287A17EE103AFDEEE77AE6
:103890001AB217EE903A204619B2FEF791FED4ED17
:1038A000347A9FED1E0A77EE807AB0EE080A204641
:1038B00027EE800AFEF779FD94ED340A49F0DAFD2F
:1038C000D6ED007AE0EE287A2146B0EE670A284667
:1038D000FFF7EAFE2046DC34FEF742FDBC42ADD1E4
:1038E000D5F8A82105F6A4031A6085ED6A8ABDEC17
:1038F000068BBDE8F08149F0E3FE9FED098A38EEC2
:10390000400A30EE088A8FE7128C0720108C0720BF
:10391000DB0FC940000026435CDB0520DB0F49407C
:10392000DB0FC93F60DB0520F5EEC00AF1EE10FAAF
:1039300008B52DED028BB0EE408AB0EE600A2CDDAA
:10394000B5EEC08AF1EE10FA27D8DFED1B7A30EE23
:10395000E70ADFED1A8A30EE080AF0EE680A49F04D
:103960000DFF9FED177AB0EEC00AB4EEC70AF1EE74
:1039700010FAF0EEC87AC8BF38EEC00AB5EEC08AB9
:10398000BDEC028BD4BF37EEC00A30EE270AF1EE51
:1039900010FAD8BFB1EE400A08BDB5EEC00AF1EE8C
:1039A00010FAD6D8B5EEC08AF1EE10FAC4BFDFED3A
:1039B000027A30EE270ACCE7DB0FC940DB0F493F24
:1039C000DB0FC93E2DE9F0472DED028B90F8AD32AB
:1039D0000446002B00F0838090F8A838002B7ED19D
:1039E00090F8A938002B7AD100F6A403D3ED007A21
:1039F0009FED617AF4EEC77AF1EE10FA73DDDFED38
:103A00005F6A77EEE67AC3ED007AD4ED6A7AF4EE77
:103A1000C77AF1EE10FA72DD9FED587A77EEC77A29
:103A2000C4ED6A7AD3ED007A94ED6A7AB4EEE77A5F
:103A3000B7EE000AF1EE10FAFFEE008A0B7970FE85
:103A4000288A012B9FED4E8A04F6940504F68C0615
:103A500004F6980804F509674FF0000A62D1B1F93D
:103A60000600FCF787FD21F000431946FDF7AEF88C
:103A700007EE900A27EE880A94F8A23820EE280A6A
:103A800037EEA78A002B46D0D5ED007A20EE000A4B
:103A9000A7EEA70A49F0D2FE28EE800AFBFE487A7C
:103AA00085ED000A27EEA70A96ED007AA7EE070A31
:103AB00049F0C4FE86ED000AD4ED9F0AC8ED000A65
:103AC000204695ED000AFFF72FFF012385ED000A40
:103AD000C7F800A084F8A038002384F8A238BDEC11
:103AE000028BBDE8F087DFED276AF4EEE67AF1EEAF
:103AF00010FA8AD5DFED216A77EEA67A83E79FED8B
:103B0000217AF4EEC77AF1EE10FA8BD59FED1B7A8D
:103B100077EE877A84E7FBFE487A85ED000AC6EDEA
:103B2000007AC9E74FF0010984F8A298B1F90600BC
:103B3000FCF720FD21F000431946FDF747F807EE9A
:103B4000900A37EEA77ABBFE477A27EE880A86ED01
:103B5000007AC7F800A0D4ED9F0A20EE280AC8ED2D
:103B6000000A204685ED000AFFF7DEFE85ED000A1B
:103B700084F8A098B3E700BFE4CB9640DB0FC940C0
:103B8000CDCCCC3DDB0FC9BF70B590F8BC3004463E
:103B9000002B53D0B0F8BE00B4F8C030013080B272
:103BA0009842A4F8BE0049D3B4F8C450B4F8C62073
:103BB000C01A521BD4F8C860B4F8C23012B2002147
:103BC00080B2B04705442046FEF7A9FBADB22EB245
:103BD000B04208D0EDB24EBB2046FEF795FB294619
:103BE0002046FEF799FBB4F8C030B4F8C210B4F820
:103BF000BE200B449A4221D3002384F8BC30A4F8A1
:103C0000C23020F0C5FC2146043020F00EFDD4F86F
:103C1000CC0098B10368DB68984778B1D4F8CC0041
:103C20002146BDE8704003689B6818472046294636
:103C3000FEF772FB2046FEF767FBD4E770BD08B5C0
:103C4000FFF7A2FF08BDF8B51D4690F8BC3004464A
:103C50000F4616462BB920F09BFC2146043020F07D
:103C60008DFD00232046A4F8BE30FEF758FB01234B
:103C7000A4F8C26084F8BC30D4F8C030A4F8C40002
:103C8000A4F8C670C4F8C85013B92046FFF77CFFEB
:103C9000F8BD2DE9F04190F848300446002B50D093
:103CA000B0F84A30B0F84C5001339BB2AB42A0F8A8
:103CB0004A3046D35B1B9DB2B0F85420B0F8503068
:103CC000866DD21A12B2B0F84E3000212846B047A5
:103CD000B4F85230B4F856200646D21A12B2B4F8EC
:103CE0004E300021E76D2846B847B4F85220B4F8AA
:103CF00050100244314412B209B22046FDF7D0F808
:103D0000B4F84C30B4F84E10B4F84A200B449A4240
:103D100017D3002384F84830A4F84A3020F038FC48
:103D20002146043020F081FC206E50B10368DB682E
:103D3000984730B1206E2146BDE8F04103689B688A
:103D40001847BDE8F08100002DE9F04704462DED4D
:103D5000048B04F062FC0221B4F9B401B4F9082028
:103D6000B4F90A30121A92FBF1F207EE902A1B1AEC
:103D7000F8EEE77A93FBF1F34F4F0026C7ED007A98
:103D800007EE903AF8EEE77A4C4A0423C2ED007A47
:103D90009046DFED4B9A9FED4B9AB14684F8246034
:103DA000C4F89C3804F5D67507EE906AB8EEE78A39
:103DB00028EE298A85ED348AB0EE480A49F05AFB8C
:103DC000D7ED008AE0EE098AB0EE480A49F0A2FB7E
:103DD000D8ED007AE0EE097AFDEEE77ABDEEE87AFA
:103DE00017EE903A1AB217EE103A284619B2FEF7BB
:103DF000E7FB052396FBF3F303EB8303F31A013B85
:103E0000032B03D8DFE803F044494E530123152167
:103E1000C5F8D8302846FEF7B8FAD5ED347A9FEDCC
:103E20002A0A77EE807AB0EE080A284627EE800A42
:103E3000FEF7BBFA2946B0EE680A2046FFF734FCCD
:103E400085F82590236829461B6E20460136984741
:103E5000082E05F1DC05A7D1236804F12C052946BD
:103E600020465B6E9847236804F5967631462046D7
:103E70005B6E98472368314620461B6E9847BDEC21
:103E8000048B236829462046BDE8F0471B6E18477F
:103E900003235F21C5F8D830BCE704236421C5F8AB
:103EA000D830B7E702231321C5F8D830B2E7C5F8F8
:103EB000D8904321AEE700BF5CDB052060DB052026
:103EC000DB0F493F00002643DB0F49402DE9F0415D
:103ED0001E4690F8643004460F4690462BB920F0F9
:103EE00057FB2146043020F049FC0023A4F866303B
:103EF0000123A4F86A8094F83650A16EA4F86C509F
:103F0000A4F86E70266784F86430002940D1B4F8B4
:103F10006800A4F8663098423AD8ADB2181A7A1BF5
:103F2000434680B2B0470544ADB294F836202BB278
:103F30009A4206D0EDB22BBB20461CF0D3FF84F88A
:103F40003650B4F86830B4F86A10B4F866200B4400
:103F50009A421DD3002384F86430A4F86A3020F01C
:103F600017FB2146043020F060FB606F80B10368CE
:103F7000DB68984760B1606F2146BDE8F041036897
:103F80009B68184784F8365020461CF0ABFFD8E7F2
:103F9000BDE8F0812DE9F0472DED028B90F8AD32B0
:103FA00082B004460D46002B4FD090F8A838002B65
:103FB0004BD190F8A938002B47D10979002955D168
:103FC00080F8A11880F8A018C54B0A2200F5967059
:103FD000FFF77CFF0221B5F90830B4F90A2008EE9A
:103FE000103A92FBF1F3F8EEC87A08EE103AB5F900
:103FF0000630B8EEC88A00EE103AB4F9083037EE51
:10400000C88A93FBF1F3F8EEC07A00EE103AB8EEEE
:10401000C00A37EEC00A20EE000AA8EE080A49F0EE
:104020000DFCB5F9063007EE903AAE4BF8EEE77AA4
:1040300093ED007AF4EEC77AF1EE10FA0ADB88EE1F
:10404000000A49F03DFB84ED6A0A02B0BDEC028B28
:10405000BDE8F087F9D588EE000A49F031FBDFEDC5
:10406000A27A37EEC00A30EE270AECE790F8A038C3
:10407000002BEAD190F8A13863B900F5096600F683
:104080008C0796ED007AD7ED007AB4EEE77AF1EE80
:1040900010FA65D500239FED955A2246F2EE045A98
:1040A0001946DFED934AF0EE457A92ED9F7AB4EE31
:1040B000E47AF1EE10FA4BDCB5EEC07AF1EE10FACC
:1040C0004BD4F0EEE56AB0EEC76A76EEC56A36EE1E
:1040D000456AF0EEE66AB0EEC66AB4EE666AF1EEE4
:1040E00010FA48BF0B4601F1010148BFF0EE475AF4
:1040F000082902F1DC02D8D1002104F5096211601F
:10410000D4F87C1204F698021160DC2202FB03430F
:1041100093ED9F7A77EEC77A9FED767A04F6940353
:10412000C3ED007A67EE877AFBFE677AB0EE007A1D
:10413000F0EEE77AF4EEC77AF1EE10FA04F68C03AB
:1041400077FE877AC3ED007A012384F8A0387CE7F4
:1041500037EE647A82ED9F7AA7E737EE247AF9E7A3
:10416000B5F90610B4F93031B5F90800994247DBCA
:10417000B4F8342113441BB2994241DAB4F9323114
:1041800098423DDBB4F8362113441BB2984237DA2B
:1041900000254FF0DC08DFF848A104F5D679D4F803
:1041A0009C38AB4206D053463722002108FB0590CD
:1041B000FFF749FD0135082DF1D194F8173133B9D6
:1041C00020F0E6F904F12C01043020F0D7FA0023A6
:1041D000A4F81831A4F820313723A4F81C31404B3F
:1041E00094F85420C4F82431012384F8173184F85A
:1041F000A838414BA4F81E213B600023336024E71C
:1042000023460025B3F9B021914277DBB3F8B4C15E
:10421000624412B2914271DAB3F9B22190426DDB7D
:10422000B3F8B6C1624412B2904267DAD4F89C384F
:10423000AB4215D14FF00008DFF8A4A004F5D67901
:10424000454505D05346372200214846FFF7FBFC81
:1042500008F10108B8F1080F09F1DC09F0D1ACE769
:10426000DC2303FB0545DFED220A95ED9F0A49F0AB
:1042700085FA9FED1E8AB4EEC80AF1EE10FA04F634
:104280009408DFED1B0A95ED9F0A23DD49F076FACD
:1042900030EE480AB1EE400A002388ED000A336090
:1042A000D4F87C2204F698031A60D8ED007A9FEDCA
:1042B000117A67EE877AFBFE677AB0EE007AF0EE4D
:1042C000E77AF4EEC77AF1EE10FA77FE877AC7ED57
:1042D000007A39E749F052FA38EE400ADCE700BFCD
:1042E000B76B02085CDB0520DB0FC93FDB0F4940E1
:1042F000DB0FC94000002042000048420135082D74
:1043000003F1DC037FF47EAF5F23DC22A4F83031BD
:10431000D4F89C3804F5967502FB03431E4AB3F8A3
:10432000843269462846ADF8043000921CF0C6FE7F
:1043300094F87431B4F932612BB920F029F9294687
:10434000043020F01BFA0023A4F87631B4F83031A1
:10435000A4F88261A4F87C31B4F83231A4F87E313B
:104360008823A4F880313C23A4F87A310B4BC4F89D
:1043700084310B4BC4F88831012384F87431D4F8AC
:10438000783113B92846FFF784FC054B3C22FF2106
:104390002846FFF79BFD58E6AC1C0508656A020835
:1043A000B76B0208000000002DE9F0472DED068BE9
:1043B00090F8B06882B00446002E57D0B0F8B238FA
:1043C000F0EE080A00EE103AB8EE400A49F0D6F9CD
:1043D000B5EE400AF1EE10FA04F12C050CD1B4F858
:1043E000B2384BB10322B3FBF2F302A9193321F81F
:1043F000083D28461CF018F8B4F8B2389FEDE28A60
:1044000000EE103ADFEDE11AB7EE001AF0EE480ABE
:10441000B8EE400A02F059FC28461CF016F828466F
:1044200021F09EF9B4F8B23801339BB24A2BA4F8BC
:10443000B23816D90023D64A84F8B03804F68C0373
:104440001A60D44A04F694031A6004F5096383EDF4
:10445000008AD4F87C2204F698031A60012384F8B9
:10446000A03802B0BDEC068BBDE8F08790F8A078CC
:10447000002F00F01C8100F68C0800F6940200F674
:10448000980300F50967D8ED001A92ED001AD3EDF4
:10449000000A97ED000A02F018FCDFEDBF9AB0EEBB
:1044A000409A9FEDBE8ADFF810A304F5D675284622
:1044B000FDF756FF07EE906AF0EE498AF8EEE77ACC
:1044C000E7EEA98AC5ED348AB0EE680A48F0D2FF5B
:1044D000B0EE40AAB0EE680A49F01CF8DAED007AB6
:1044E000E0EE087ADFF8D492BDEEE77AD9ED007AF3
:1044F000EAEE087A17EE103AFDEEE77A1AB217EEF6
:10450000903A284619B2FEF75BF895ED340A48F068
:10451000B1FFD9ED007AE0EE087A2946B0EE670ADD
:104520002046FFF7C1F8D5ED347A9FED9D0A77EE6E
:10453000807AB0EE080A284627EE800AFDF735FF9C
:1045400095F82530D3B9DFED970A95ED340A49F097
:1045500015F9DFED957AB4EEE70AF1EE10FA0DD514
:10456000DFED900A95ED340A49F008F9B5EEC00A7E
:10457000F1EE10FAC4BF012385F825302846013634
:10458000FDF7EEFE082E05F1DC0590D1D7ED007A9F
:10459000B7EE007A77EE877AC7ED007A98ED007A69
:1045A000F4EEC77AF1EE10FA7FF75BAF72A7D7E9A6
:1045B00000670FF2CC19D9E900890025A2469FEDCA
:1045C000798A84F8A058F0EE480A9AED9F0A49F0DB
:1045D000D5F8F0EEC07A17EE900AFBF7DDFF324611
:1045E0003B46FCF7C1FA90B1F0EE480A9AED9F0AFB
:1045F00049F0C4F8F0EEC07A17EE900AFBF7CCFF52
:1046000042464B46FCF792FA08B1C4F89C58013573
:10461000082D0AF1DC0AD6D1012384F824305F2367
:10462000DC22A4F83031D4F89C3804F5967502FBEE
:1046300003435E4AB3F8843269462846ADF8043035
:1046400000921CF03BFD94F87431B4F932612BB93F
:104650001FF09EFF2946043020F090F80023A4F8B4
:104660007631B4F83031A4F88261A4F87C31B4F822
:104670003231A4F87E318823A4F880313C23A4F899
:104680007A314B4BC4F884314A4BC4F8883101234A
:1046900084F87431D4F8783113B92846FFF7F9FA61
:1046A000444B3C22FF212846FFF710FCD9E690F846
:1046B000A838002B3FF4D5AEDC26D0F89C0804F5D2
:1046C000096506FB004004F68C0800F5D670FDF77E
:1046D00047FE95ED008AD8ED008AB5EE001AF0EE9F
:1046E000681AF7EE000AB0EE480A02F0FDFAF5EE9D
:1046F000007A28EE278AC8EE287AB7EE008A77EE8D
:10470000887A30EE670AD4F89C0830EE080A06FB77
:10471000004000F5D670FDF735FED4F89C0806FB86
:10472000004000F5D670FDF71BFED5ED007A77EE60
:10473000887AC5ED007A98ED007AF4EEC77AF1EE4A
:1047400010FA7FF78EAE1FF023FF214604301FF0D2
:104750006CFF0521D4F89C3884F8A87893FBF1F11C
:1047600001EB8101591A2368C9B2D3F88C30204675
:10477000984776E6AFF30080333333932E550840E5
:10478000CDCCCC2CC8EE09400000000000009442C3
:1047900000000C43DB0FC940DB0F493F00002643FC
:1047A000DB0F4940DB0FC940CDCCCC3EAC1C05082B
:1047B000656A0208B76B020860DB05205CDB052038
:1047C0007047000010B50446024B036004F0F0FB94
:1047D000204610BDFC1D050810B50446FFF7F2FF8A
:1047E000204641F6047148F061FC204610BD90F867
:1047F00028202AB190F8252012B103685B69184778
:104800007047000010B5044604F08CFC204B214A90
:10481000236041F6CC63E25041F6D0631E4A012189
:10482000E25041F6D4631D4A2046E25041F6D86377
:104830001B4AE25041F6DC63BB22E252194A04F5FE
:10484000F7531A604FF07C525A60174A04F5F75339
:104850009A60002341F6EC62A35441F6EE62A35243
:1048600041F6F062A35241F6F262A35241F6F462BD
:10487000A35241F6F662A35441F6F862A15041F604
:10488000FC62A352002204F5F8531A6010BD00BF69
:10489000FC1D0508E001E00114FF9D009D00500093
:1048A00068011E002B87763F6666A63F41F6EC63E3
:1048B0000D22C25441F6FA63B0F87C21C25241F68F
:1048C000FC63B0F87E21C25200F5F75393ED027AF3
:1048D00041F6DA63D0ED687AC35E37EE677A013B62
:1048E00007EE903AF8EEE77AC7EE276A00F5F8523D
:1048F000C2ED006A704741F6EC631022C25441F6E3
:10490000FA63B0F81C21C25241F6FC63B0F81E21D4
:10491000C25200F5F75393ED027A41F6DA63D0ED17
:10492000507AC35E37EE677A013B07EE903AF8EEB5
:10493000E77AC7EE276A00F5F852C2ED006A7047C1
:104940002DE9F84F41F6CC632DED028B30F9038051
:1049500041F6CE63C55E13889FED317A02331BB2F8
:1049600007EE903AF8EEE77A67EE877A9FED2D7AB8
:1049700087EE878A38EE608AB4EEC08AF1EE10FACC
:10498000B1F90890B1F90A7006460C46138044D874
:1049900041F6DC6A0B6808465B699847B0EE480A46
:1049A00048F068FD36F90A304FF0020B07EE903AF6
:1049B000F8EEE77A27EE800ABDEEC00AA8EB0901FF
:1049C00010EE103A91FBFBF10B441946236809B233
:1049D0001B6B20469847B0EE480A48F09BFD36F91D
:1049E0000A30EF1B07EE903AF8EEE77A27EE800ADE
:1049F000BDEEC00A97FBFBF710EE103AF91A2368D8
:104A000009B25B6B20469847236820465B6998474C
:104A10000120BDEC028BBDE8F88F0020F9E700BF54
:104A2000DB0F49400000C84238B590F81C320446FC
:104A300053B900F5F752DFED1A0A9FED1A0A10324A
:104A400000F5EC71FFF77CFF94F8BC315BB904F51D
:104A5000F752DFED130A9FED140A123204F5BC7110
:104A60002046FFF76DFF94F85C31BBB941F6F46561
:104A7000DFED0B0A9FED0D0A621904F58C712046DB
:104A8000FFF75EFF41F6F663E05438B941F6EC6398
:104A90000822E25441F6F063E050605338BD00BF95
:104AA000920A863FDB0F4940378D2740920A064025
:104AB0002DE9F04190F844300446002B55D0B0F871
:104AC0004630B0F8485001339BB2AB42A0F84630B4
:104AD0004BD35B1B9DB2B0F85020B0F84C30466D04
:104AE000D21A12B2B0F84A3000212846B047B4F8C2
:104AF0004E30B4F852200646D21A12B2B4F84A30F8
:104B00000021A76D2846B847E388B4F84E20B4F8D2
:104B10004C10D21AA3880244C91A236831445B6D31
:104B200012B209B220469847B4F84830B4F84A1097
:104B3000B4F846200B449A4217D3002384F844303B
:104B4000A4F846301FF024FD214604301FF06DFD0F
:104B5000E06D50B10368DB68984730B1E06D2146E5
:104B6000BDE8F04103689B681847BDE8F081F8B5DF
:104B70001D4690F8443004460F4616462BB91FF0E8
:104B800007FD214604301FF0F9FD0023A4F846304C
:104B9000A388A4F84A50A4F84C30E388A4F85070D5
:104BA000A4F84E30069BA4F852606365079BA3658A
:104BB000012384F84430A36C13B92046FFF778FF33
:104BC000F8BD0000F7B541F6D6670446B0F8DC1131
:104BD000174E184D01F5D771C35BB0F9DE2109B24C
:104BE0000196009500F5EC70FFF7C1FFB4F8DC11F9
:104BF000E35B01F5D771B4F97E2104F5BC70CDE912
:104C0000005609B2FFF7B3FFB4F8DC11E35B01F51E
:104C1000D771B4F91E21CDE9005609B204F58C70A4
:104C2000FFF7A5FF41F6EC630522E25403B0F0BDA7
:104C3000B76B0208516B020810B5044604F086F900
:104C40000122064B04F198001B6883F86C200023B6
:104C500084F8BD30BDE8104020F082BD1C8C0720D8
:104C60004FF0814370B500F198060446C0F8C0309B
:104C7000C0F8C43030461CF08FFB41F6CC630221F3
:104C8000E25EB4F9A0300125D21A92FBF1F241F6AE
:104C9000CE63A4F89C20E35EB4F9A22084F8BD5052
:104CA0009B1A93FBF1F33046A4F89E3020F058FD98
:104CB0003223A4F8083141F6EC63E55470BD0000DE
:104CC0002DE9F041044600F198052DED028B2846B0
:104CD00020F046FDB4F9A230284608EE103A1CF048
:104CE00017FBB8EEC88AB4EEC08AF1EE10FA28DDE0
:104CF000D4ED307A9FED4B7A67EE877A2846C4ED83
:104D0000307AC4ED317A1CF047FBBDEC028B41F6E2
:104D1000CC630221E25EB4F9A0302846D21A92FB9D
:104D2000F1F241F6CE63A4F89C20E35EB4F9A22030
:104D30009B1A93FBF1F3A4F89E30BDE8F04120F0FC
:104D40000FBD41F6D163E75C41F6D06314F80380F0
:104D500094F8053104F1DC062BB91FF019FC31463B
:104D600004301FF00BFD0023A4F806312E4BA4F8ED
:104D70000A81C4F81031012394F80451D4F80811C1
:104D8000A4F80C51A4F80E7184F8053100293BD128
:104D9000B4F80801A4F80631984235D8ADB2181A13
:104DA0007A1B434680B221F0D3FE0544ADB294F89D
:104DB00004212BB29A4206D0EDB26BBB3046FFF70E
:104DC00016FD84F80451B4F80831B4F80A11B4F8A7
:104DD00006210B449A4217D3002384F80531A4F826
:104DE0000A311FF0D5FB314604301FF01EFCD4F809
:104DF000140148B10368DB68984728B1D4F814015E
:104E0000314603689B689847BDEC028B41F6EC6322
:104E10000222E254BDE8F08184F804513046FFF7E5
:104E2000E6FCD0E72B87763F516B020838B590F847
:104E30000551044675B980F8BD50983020F090FCBB
:104E400084F8915004F16C0020F08AFC41F6EC6388
:104E50000322E25438BDF8B500F5F75304331B685C
:104E600000F5EC77C0F80032C0F80432C0F8A03189
:104E7000C0F8A431C0F84031C0F84431044600F510
:104E8000BC7600F58C7538461CF086FA30461CF06E
:104E900083FA28461CF080FA384620F061FC304640
:104EA00020F05EFC284620F05BFC0023A4F82032B2
:104EB0004623A4F8C0318C230422A4F8603141F6C3
:104EC000EC63E254F8BD0000F8B500F5EC7504465B
:104ED0002DED028B284620F043FC41F6F06741F6A9
:104EE000DA62E35FA25E93424BDA07EE903A07EE96
:104EF000102A9FED3E0AF8EEE77A67EE807AB8EE68
:104F0000C70A87EE800A48F005FB94ED808AF5EE2B
:104F1000007A38EE087A20EE270AC0EE077A77EE9C
:104F2000887A2846C4ED807AC4ED817A1CF034FA80
:104F300041F6CC630226E25EB4F9E0314FF64C70E4
:104F4000D21A92FBF6F241F6CE63E15BA1EB81014E
:104F5000A0EB41010A44A4F8DC21E35EB4F9E221AC
:104F60009B1A93FBF6F3063BA4F8DE31284620F0AB
:104F7000F7FBBDEC028B41F6F062A35A0133A3525A
:104F8000F8BD272B05DCB4F8DC310733A4F8DC319D
:104F9000ECE7D4ED807A9FED167A67EE877A2846A3
:104FA000C4ED807AC4ED817A1CF0F6F9B4F8DC31F6
:104FB000B4F9E2210D33A4F8DC3141F6CE63E35EAF
:104FC00028469B1A022293FBF2F3A4F8DE3120F06C
:104FD000C7FB41F6CC63E25EB4F9DC319A42BEBF56
:104FE00041F6EC630B22E254C3E700BFDB0F4940FC
:104FF0007B146E3F002310B580F8FD31044600F5A8
:10500000EC7020F0ADFB41F6EC630C22E25410BDD5
:1050100070B500F5BC750446284620F0A1FB41F6AA
:10502000F26641F6DA62A35FA15E8B4246DA41F690
:10503000FA62A05E41F6D262A25E0133121A5A43AE
:1050400092FBF1F20244A4F87C2141F6FC62A05EDE
:1050500041F6D462A25E94ED687A121A534393FB30
:10506000F1F30344A4F87E3104F5F853D3ED007A4C
:1050700077EE877A2846C4ED687AC4ED697A1CF029
:105080008BF9B4F98231F6EE006A07EE903AB4F982
:105090008031F8EEE77A07EE103AB8EEC77A67EE9D
:1050A000A67A27EE267AC4ED6C7A84ED6B7A2846D0
:1050B00020F056FBA35B0133A35370BD41F6D863C8
:1050C000E35E94ED6A7A03EB430307EE903AF8EE61
:1050D000E77AF4EEC77AF1EE10FA0ADDF2EE087A1A
:1050E00037EE277A84ED6A7A2846BDE8704020F0D2
:1050F00037BB41F6CC62B4F97C31A25E9A42B9BFAB
:1051000041F6EC630E220F33A4F87C31B8BFE254B1
:10511000EAE7002310B580F89D31044600F5BC7025
:1051200020F01EFB41F6EC630F22E25410BD00009C
:1051300070B500F58C7504462DED028B284620F0E5
:105140000FFB41F6F46641F6DA62A35FA15E8B4283
:1051500048DA41F6FA62A05E41F6D262A25E0133FD
:10516000121A5A4392FBF1F20244A4F81C2141F6B0
:10517000FC62A05E41F6D462A25E94ED507A121AEF
:10518000534393FBF1F30344A4F81E3104F5F853A1
:10519000D3ED007A77EE877A2846C4ED507AC4EDD5
:1051A000517A1CF0F9F8B4F92231F6EE006A07EEF4
:1051B000903AB4F92031F8EEE77A07EE103AB8EEFB
:1051C000C77A67EEA67A27EE267AC4ED547A84ED84
:1051D000537A284620F0C4FABDEC028BA35B01335E
:1051E000A35370BD41F6D862A25E94ED527A52424A
:1051F00007EE902AF8EEE77AF4EEC77AF1EE10FAAD
:105200000CD5F2EE0E7A37EE677A84ED527ABDEC69
:10521000028B2846BDE8704020F0A2BA4A009342B3
:1052200000EE102A3FDA01331BB2A3535B0007EEF6
:10523000903A9FED367AF8EEE77AB8EEC00A67EE5C
:10524000877A87EE800A48F065F9DFED317A94EDD0
:10525000508A20EE270AF0EE087A68EE277A80EE70
:10526000277A38EE478A284684ED508A84ED518AA1
:105270001CF092F841F6CC630221E25EB4F92231CF
:105280002846D21A92FBF1F241F6CE63A4F81C2113
:10529000E35EB4F920219B1A93FBF1F3A4F81E31CD
:1052A00020F05EFAB3E7B3EB810F1CDA01331BB2D7
:1052B000A3535B0007EE903A9FED147AF8EEE77A7D
:1052C000B8EEC00A67EE877A87EE800A48F022F9C6
:1052D000DFED107A94ED508A20EE270AC0EE087AAE
:1052E00038EE678ABFE741F6CC62B4F91C31A25EA2
:1052F0009A42BFBF0023112284F83D3141F6EC638E
:10530000A6BF0F33A4F81C31E25480E7DB0F4940FD
:10531000CDCC4C3ECDCCCC3D2DE9F0414FF07E5371
:105320000446012500F5EC78C0F80032C0F80432DC
:10533000C0F8A031C0F8A431C0F84031C0F8443101
:105340004FF4B9726FF07F01404604F5BC77FDF76A
:1053500037F904F58C764FF4B9726FF0E4013846F2
:10536000FDF72EF94FF4B9726FF4A5713046FDF7D1
:1053700027F9404684F8FD5184F89D5184F83D5149
:1053800020F0EEF9384620F0EBF9304620F0E8F94D
:10539000002341F6F662A3540022C4F8A821C4F801
:1053A000482141F6F062A35041F6F462A35241F65F
:1053B000F863E552BDE8F08110B50446FFF7ACFF95
:1053C00041F6EC630322E25410BD41F6EC63C25C8B
:1053D000112A2FD8DFE802F0090B0D0F1113161850
:1053E0001A1C1E20222426282A2CFFF739BCFFF77E
:1053F00067BCFFF71BBDFFF72EBDFFF7E3BB06221F
:10540000C25470470722FBE7FFF70EBB0922F7E7FC
:105410000A22F5E7FFF758BDFFF7ECBDFFF746BAE4
:10542000FFF7F6BDFFF775BEFFF765BAFFF780BE61
:10543000FFF7C2BF704741F6EE62835A01338352D1
:10544000FFF7C3BF704704387047704710B5044674
:10545000102147F02BFE204610BDA0F10400F5E717
:10546000002210B58260044AC16002F108042032B3
:105470000460426010BD00BF281E05087047043854
:105480007047704710B50446102147F00FFE2046C4
:1054900010BDA0F10400F5E7002210B58260044AB7
:1054A000C16002F1080420320460426010BD00BFF8
:1054B000501E050870477047042913D8DFE801F033
:1054C0000306090C0F0003681B6C18470368DB6BAD
:1054D000FBE703685B6BF8E703689B6BF5E7036822
:1054E0005B6CF2E770479830FEF7CEB810B5044613
:1054F000024B036004F012F8204610BD801E050820
:1055000010B50446FFF7F2FF204640F6FC1147F0C5
:10551000CDFD204610BD000010B5044604F016F87D
:10552000014B2046236010BD801E050808B503F01E
:10553000B5FF0122024B1B6883F86C2008BD00BF39
:105540001C8C0720002070474FF6FF7383814FF0BB
:10555000FF3303621368C3611060704790F8252021
:105560001AB190F8242002B11860704780F8261014
:10557000704790F82600704780ED0B0AC0ED0C0ACA
:10558000704790ED0B0A704790ED0C0A7047F7EEEC
:10559000007AB4EEE70AF1EE10FA30FE270A80ED49
:1055A0000D0A704790ED0D0A7047704710B504461C
:1055B000BC2147F07BFD204610BD002202804280C6
:1055C0008280C2807047000090F8272013B572B126
:1055D000084AB0F848401288944208D2826B32B12F
:1055E000046D02680094D46FC36C0022A04702B01F
:1055F00010BD00BF788C0720044B1B6893F858201F
:105600000AB1D86C00B99868704700BF1C8C07209D
:10561000012210B580F82520174A00230260FF22DE
:1056200080F827200022C26202630264134A044603
:1056300042644FF6FF7212498380C3800381438125
:105640008381C38103824382C0E90533C36103843C
:10565000438480F8243080F8263081624163C0E9B9
:105660000E33A0F84820C0E913334365583021F0C9
:10567000D1FA204610BD00BF941F0508AC1C0508D8
:1056800000007A44F0B52DED048B8B8AD1ED006AD1
:1056900007EE103ACB8A91ED016A07EE903AB8EE28
:1056A000C77A4FF07E53F8EEE77AADF5417D37EEDD
:1056B000267A77EE867A139317931B931F93002312
:1056C0001746426B2093219322932493259326938C
:1056D000289329932A93CDED106A8DED116A8DEDF3
:1056E000147A8DED156A8DED187ACDED197ACDED20
:1056F0001C6ACDED1D7A129216921A921E922C936C
:1057000091ED029AD1ED038A90ED0A8A0C46064685
:1057100030A82D932E9321F0F3FFB1EE490A30A863
:1057200022F0C0F8B1EE680A22F0CAF8B1EE480AD9
:1057300022F0D5F840A821F0E3FF94ED040A40A838
:1057400022F087F850A821F0DBFFB0EE490A50A8FC
:1057500022F0A8F8B0EE680A22F0B2F8B0EE480ADB
:1057600022F0BDF840AA50A9B0A821F0E1FF30AA6C
:10577000B0A960A821F0DCFF70A821F0C1FF96ED70
:105780000B0A70A8B1EE400A22F08CF896ED0C0AD4
:105790006C46B1EE400A70A822F092F880A821F081
:1057A000AFFF96ED0D0A80A821F0F0FF90A821F040
:1057B000A7FF96ED0B0A90A822F074F896ED0C0A5C
:1057C00022F07EF880AA90A9A0A821F0B1FF70AACB
:1057D000A0A9B0A821F0ACFF60AD60AAB0A968464E
:1057E00021F0A6FF0FCC0FC50FCC0FC50FCC0FC5F6
:1057F00094E80F00002485E80F00210120AB5D181C
:1058000010AB194460A821F04BFF0134042C85ED46
:10581000000AC5ED010A85ED021AC5ED031AECD1A7
:1058200096ED0D7ADDED206ADDED227A27EE267AFF
:10583000C7EE276AC7ED006ADDED216A96ED0D7AA5
:1058400027EE267AC7EE276AC7ED027AC7ED016A0E
:10585000DDED246A96ED0D7ADDED267A27EE267AC7
:10586000C7EE276AC7ED036ADDED256A96ED0D7A6E
:1058700027EE267AC7EE276AC7ED057AC7ED046AD8
:10588000DDED286A96ED0D7ADDED2A7A27EE267A8F
:10589000C7EE276AC7ED066ADDED296A96ED0D7A37
:1058A00027EE267AC7EE276AC7ED087AC7ED076AA2
:1058B000DDED2C6A96ED0D7ADDED2E7A27EE267A57
:1058C000C7EE276AC7ED096ADDED2D6A96ED0D7A00
:1058D00027EE267AC7EE276AC7ED0B7AC7ED0A6A6C
:1058E0000DF5417DBDEC048BF0BD00002DE9F04FBE
:1058F000ADB0CDE90623DDE938A9DDE93A8700231B
:10590000B1F900508A8804462A4492B20FFA82FB09
:105910009B453C9EB0F908E0B0F90AC0109340F3F3
:10592000E180AE4540F3DE80B1F90200CB8803444C
:105930009BB219B2002940F3D580844540F3D28050
:10594000DE45B8BF1FFA8EF28C4525EAE57520EAE0
:10595000E070B8BF1FFA8CF3521B1B1AADF844203D
:10596000ADF84630ADF84050ADF84200236810AABB
:1059700012AD92E80300099285E80300DB6A29462C
:105980002046984714AB2146184608931FF084FF21
:10599000089B04F1040B18461EF08CFC099A59462A
:1059A00010461EF0CBFC28461EF084FCDAF80020DE
:1059B0000DA90A92DAF804200AA80B92DAF8082056
:1059C0000C92D9F800200D92D9F804200E92D9F843
:1059D00008200F925A461EF095FC5A460EA90BA8B5
:1059E0001EF090FC5A460FA90CA81EF08BFCDDEDB2
:1059F0000D7AB0EE677ADDED0B7AF0EE676ADDEDD9
:105A00000E7AFEEECE6A16EE900AF0EE676ADDEDD3
:105A10000C7AFEEECE6A16EE901AF0EE676AFEEE93
:105A2000CE6ADDED0F7A16EE902ADDED0A6A97ED6B
:105A3000006AD8ED005ABEEECE7AFEEECE7AFEEEC9
:105A4000CE6AD6F804E0D8F808C0D6F800B0D7F887
:105A50000490069BD8F804A0BF68B6682792234A32
:105A6000CDED1D6A8DED1E7ACDED1F5A8DED206AAC
:105A7000CDE92201CDF898E0CDED287ACDF8A4C08B
:105A80002B961693CDF884B0CDF890A0CDF89490D5
:105A90002A971288079B1792002218931992369B17
:105AA000379A1A931B925A1C22F001021C92FFF79C
:105AB000A3FD02684FF6FF71D66B94F82620089B71
:105AC000002A0CBF32223322049194F8271000934D
:105AD000CDE90221019518AB1DAA16A9B0472DB03A
